{
  "contractName": "Compra",
  "abi": [
    {
      "constant": true,
      "inputs": [
        {
          "name": "",
          "type": "uint256"
        }
      ],
      "name": "compradores",
      "outputs": [
        {
          "name": "",
          "type": "address"
        }
      ],
      "payable": false,
      "stateMutability": "view",
      "type": "function"
    },
    {
      "constant": false,
      "inputs": [
        {
          "name": "carroId",
          "type": "uint256"
        }
      ],
      "name": "comprar",
      "outputs": [
        {
          "name": "",
          "type": "uint256"
        }
      ],
      "payable": false,
      "stateMutability": "nonpayable",
      "type": "function"
    },
    {
      "constant": true,
      "inputs": [],
      "name": "getCompradores",
      "outputs": [
        {
          "name": "",
          "type": "address[16]"
        }
      ],
      "payable": false,
      "stateMutability": "view",
      "type": "function"
    }
  ],
  "bytecode": "0x608060405234801561001057600080fd5b506102d7806100206000396000f300608060405260043610610057576000357c0100000000000000000000000000000000000000000000000000000000900463ffffffff16806302bcd3351461005c578063272e365a1461009d57806333477e961461010a575b600080fd5b34801561006857600080fd5b506100876004803603810190808035906020019092919050505061015d565b6040518082815260200191505060405180910390f35b3480156100a957600080fd5b506100c8600480360381019080803590602001909291905050506101d1565b604051808273ffffffffffffffffffffffffffffffffffffffff1673ffffffffffffffffffffffffffffffffffffffff16815260200191505060405180910390f35b34801561011657600080fd5b5061011f610206565b6040518082601060200280838360005b8381101561014a57808201518184015260208101905061012f565b5050505090500191505060405180910390f35b600080821015801561016f5750601082105b151561017a57600080fd5b3360008360108110151561018a57fe5b0160006101000a81548173ffffffffffffffffffffffffffffffffffffffff021916908373ffffffffffffffffffffffffffffffffffffffff160217905550819050919050565b6000816010811015156101e057fe5b016000915054906101000a900473ffffffffffffffffffffffffffffffffffffffff1681565b61020e610287565b600060108060200260405190810160405280929190826010801561027d576020028201915b8160009054906101000a900473ffffffffffffffffffffffffffffffffffffffff1673ffffffffffffffffffffffffffffffffffffffff1681526020019060010190808311610233575b5050505050905090565b610200604051908101604052806010906020820280388339808201915050905050905600a165627a7a72305820d7631bffa965baf461faca29703cecbc2e6dbc7d8339c545d693c580751f4f420029",
  "source": "// pragma = additional information that only the compiler cares about, while the caret symbol (^) means \"the version indicated or higher\".\npragma solidity ^0.4.0;\n\ncontract Compra {\n    // Irá guardar os endereço únicos de cada conta dentro da blockchain Ethereum.\n    address[16] public compradores;\n    //event LogAuditoria();\n\n    function comprar(uint carroId) public returns (uint) {\n        // require = garante que o id passado esteja entre o range especificado\n        require(carroId >= 0 && carroId < 16);\n\n        // msg.sender = recupera o endereço do comprador que fez a requisição\n        compradores[carroId] = msg.sender;\n\n        return carroId;\n    }\n\n    // Recupera os compradores no modo somente leitura, para não ser modificado (view)\n    function getCompradores() public view returns (address[16]) {\n        return compradores;\n    }\n}\n",
  "sourcePath": "/home/bianca/projetos/blockchain/contracts/Compra.sol",
  "compiler": {
    "name": "solc",
    "version": "0.4.24+commit.e67f0147.Emscripten.clang"
  },
  "schemaVersion": "2.0.1",
  "updatedAt": "2019-03-04T19:47:14.244Z"
}